:020000040800F2
:1000000000300020F94C00081D31000823310008A1
:10001000293100082F3100083531000800000000A8
:100020000000000000000000000000003B3100085C
:100030004931000800000000573100086531000810
:10004000494D0008494D0008494D0008494D000838
:10005000494D0008494D0008494D0008494D000828
:10006000494D0008494D0008494D0008494D000818
:10007000494D0008494D0008494D0008494D000808
:10008000494D0008494D0008494D0008494D0008F8
:10009000B52E0008494D0008494D0008494D00089B
:1000A000494D0008494D0008494D0008494D0008D8
:1000B000494D0008494D000800000000494D000866
:1000C000494D00080000000000000000494D0008F4
:1000D00000000000494D0008494D0008494D000846
:1000E000494D0008494D00080000000000000000D4
:1000F0000000000000000000000000000000000000
:1001000000000000000000000000000000000000EF
:100110000000000000000000494D0008494D0008A3
:1001200000000000000000000000000000000000CF
:1001300000000000000000000000000000000000BF
:10014000494D0008494D0008000000000000000073
:10015000000000000000000000000000000000009F
:10016000000000000000000000000000000000008F
:10017000000000000000000000000000000000007F
:0801800000000000494D0008D9
:1001880010B5054C237833B9044B13B10448AFF3C9
:1001980000800123237010BD7000002000000000C3
:1001A800907A000808B5034B1BB103490348AFF325
:1001B800008008BD0000000074000020907A00084C
:1001C80081F0004102E000BF83F0004330B54FEA00
:1001D80041044FEA430594EA050F08BF90EA020F6D
:1001E8001FBF54EA000C55EA020C7FEA645C7FEA00
:1001F800655C00F0E2804FEA5454D4EB5555B8BF23
:100208006D420CDD2C4480EA020281EA030382EA93
:10021800000083EA010180EA020281EA0303362D25
:1002280088BF30BD11F0004F4FEA01314FF4801CF8
:100238004CEA113102D0404261EB410113F0004F0A
:100248004FEA03334CEA133302D0524263EB4303C1
:1002580094EA050F00F0A780A4F10104D5F1200E5F
:100268000DDB02FA0EFC22FA05F2801841F10001BA
:1002780003FA0EF2801843FA05F359410EE0A5F18E
:1002880020050EF1200E012A03FA0EFC28BF4CF0BF
:10029800020C43FA05F3C01851EBE37101F0004575
:1002A80007D54FF0000EDCF1000C7EEB00006EEB82
:1002B8000101B1F5801F1BD3B1F5001F0CD349080C
:1002C8005FEA30004FEA3C0C04F101044FEA445263
:1002D80012F5800F80F09A80BCF1004F08BF5FEAEA
:1002E800500C50F1000041EB045141EA050130BDCA
:1002F8005FEA4C0C404141EB0101013C28BFB1F5DC
:10030800801FE9D291F0000F04BF01460020B1FA26
:1003180081F308BF2033A3F10B03B3F120020CDAF9
:100328000C3208DD02F1140CC2F10C0201FA0CF0D7
:1003380021FA02F10CE002F11402D8BFC2F1200C3C
:1003480001FA02F120FA0CFCDCBF41EA0C019040F2
:10035800E41AA2BF01EB0451294330BD6FEA04043B
:100368001F3C1CDA0C340EDC04F11404C4F1200226
:1003780020FA04F001FA02F340EA030021FA04F338
:1003880045EA030130BDC4F10C04C4F1200220FA8F
:1003980002F001FA04F340EA0300294630BD21FACD
:1003A80004F0294630BD94F0000F83F4801306BF93
:1003B80081F480110134013D4EE77FEA645C18BF87
:1003C8007FEA655C29D094EA050F08BF90EA020F1E
:1003D80005D054EA000C04BF1946104630BD91EA16
:1003E800030F1EBF0021002030BD5FEA545C05D119
:1003F8004000494128BF41F0004130BD14F5800458
:100408003CBF01F5801130BD01F0004545F0FE41CB
:1004180041F470014FF0000030BD7FEA645C1ABF00
:10042800194610467FEA655C1CBF0B46024650EA37
:10043800013406BF52EA033591EA030F41F4002163
:1004480030BD00BF90F0000F04BF0021704730B5E9
:100458004FF4806404F132044FF000054FF00001BE
:1004680050E700BF90F0000F04BF0021704730B57F
:100478004FF4806404F1320410F0004548BF404254
:100488004FF000013EE700BF42004FEAE2014FEAA9
:1004980031014FEA02701FBF12F07F4393F07F4F84
:1004A80081F06051704732F07F4208BF704793F087
:1004B8007F4F04BF41F40021704730B54FF460749A
:1004C80001F0004521F000411CE700BF50EA01029D
:1004D80008BF704730B54FF000050AE050EA010246
:1004E80008BF704730B511F0004502D5404261EBB6
:1004F80041014FF4806404F132045FEA915C3FF4F7
:10050800D8AE4FF003025FEADC0C18BF03325FEA93
:10051800DC0C18BF033202EBDC02C2F1200300FA44
:1005280003FC20FA02F001FA03FE40EA0E0021FA69
:1005380002F11444BDE600BF70B54FF0FF0C4CF457
:10054800E06C1CEA11541DBF1CEA135594EA0C0F09
:1005580095EA0C0F00F0DEF82C4481EA030621EA44
:100568004C5123EA4C5350EA013518BF52EA03357F
:1005780041F4801143F4801338D0A0FB02CE4FF031
:100588000005E1FB02E506F00042E0FB03E54FF061
:100598000006E1FB03569CF0000F18BF4EF0010E59
:1005A800A4F1FF04B6F5007F64F5407404D25FEA55
:1005B8004E0E6D4146EB060642EAC62141EA555108
:1005C8004FEAC52040EA5E504FEACE2EB4F1FD0C4A
:1005D80088BFBCF5E06F1ED8BEF1004F08BF5FEAC8
:1005E800500E50F1000041EB045170BD06F000467A
:1005F80046EA010140EA020081EA0301B4EB5C0427
:10060800C2BFD4EB0C0541EA045170BD41F480111E
:100618004FF0000E013C00F3AB8014F1360FDEBF43
:10062800002001F0004170BDC4F10004203C35DA1F
:100638000C341BDC04F11404C4F1200500FA05F3A2
:1006480020FA04F001FA05F240EA020001F0004243
:1006580021F0004110EBD37021FA04F642EB0601B9
:100668005EEA430E08BF20EAD37070BDC4F10C04E3
:10067800C4F1200500FA04F320FA05F001FA04F2A7
:1006880040EA020001F0004110EBD37041F1000193
:100698005EEA430E08BF20EAD37070BDC4F120059E
:1006A80000FA05F24EEA020E20FA04F301FA05F206
:1006B80043EA020321FA04F001F0004121FA04F2AE
:1006C80020EA020000EBD3705EEA430E08BF20EA7E
:1006D800D37070BD94F0000F0FD101F000464000B8
:1006E80041EB010111F4801F08BF013CF7D041EA3A
:1006F800060195F0000F18BF704703F0004652003E
:1007080043EB030313F4801F08BF013DF7D043EA0E
:100718000603704794EA0C0F0CEA135518BF95EAC4
:100728000C0F0CD050EA410618BF52EA4306D1D14B
:1007380081EA030101F000414FF0000070BD50EA6A
:10074800410606BF1046194652EA430619D094EAF4
:100758000C0F02D150EA013613D195EA0C0F05D1DE
:1007680052EA03361CBF104619460AD181EA030132
:1007780001F0004141F0FE4141F470014FF00000EA
:1007880070BD41F0FE4141F4780170BD70B54FF085
:10079800FF0C4CF4E06C1CEA11541DBF1CEA135505
:1007A80094EA0C0F95EA0C0F00F0A7F8A4EB0504E7
:1007B80081EA030E52EA03354FEA013100F08880DE
:1007C8004FEA03334FF0805545EA131343EA1263A7
:1007D8004FEA022245EA111545EA10654FEA00265C
:1007E8000EF000419D4208BF964244F1FD0404F515
:1007F800407402D25B084FEA3202B61A65EB030571
:100808005B084FEA32024FF480104FF4002CB6EB2D
:10081800020E75EB030E22BFB61A754640EA0C00AD
:100828005B084FEA3202B6EB020E75EB030E22BFED
:10083800B61A754640EA5C005B084FEA3202B6EB2E
:10084800020E75EB030E22BFB61A754640EA9C00ED
:100858005B084FEA3202B6EB020E75EB030E22BFBD
:10086800B61A754640EADC0055EA060E18D04FEA7B
:10087800051545EA16754FEA06164FEAC30343EA1B
:1008880052734FEAC2025FEA1C1CC0D111F4801FE8
:100898000BD141EA00014FF000004FF0004CB6E7E1
:1008A80011F4801F04BF01430020B4F1FD0C88BF80
:1008B800BCF5E06F3FF6AFAEB5EB030C04BFB6EB8B
:1008C800020C5FEA500C50F1000041EB045170BD7E
:1008D8000EF0004E4EEA113114EB5C04C2BFD4EBAB
:1008E8000C0541EA045170BD41F480114FF0000E2F
:1008F800013C90E645EA060E8DE60CEA135594EAAB
:100908000C0F08BF95EA0C0F3FF43BAF94EA0C0FAD
:100918000AD150EA01347FF434AF95EA0C0F7FF422
:1009280025AF104619462CE795EA0C0F06D152EA76
:1009380003353FF4FDAE1046194622E750EA41065A
:1009480018BF52EA43067FF4C5AE50EA41047FF46B
:100958000DAF52EA43057FF4EBAE12E74FF0FF3CD0
:1009680006E000BF4FF0010C02E000BF4FF0010CA1
:100978004DF804CD4FEA410C7FEA6C5C4FEA430C1A
:1009880018BF7FEA6C5C1BD001B050EA410C0CBF69
:1009980052EA430C91EA030F02BF90EA020F0020CB
:1009A800704710F1000F91EA030F58BF994208BF32
:1009B80090422CBFD8176FEAE37040F001007047EF
:1009C8004FEA410C7FEA6C5C02D150EA013C07D146
:1009D8004FEA430C7FEA6C5CD6D152EA033CD3D091
:1009E8005DF8040B704700BF8446104662468C468B
:1009F8001946634600E000BF01B5FFF7B7FF0028BE
:100A080048BF10F1000F01BD4DF808EDFFF7F4FFE6
:100A18000CBF012000205DF808FB00BF4DF808ED71
:100A2800FFF7EAFF34BF012000205DF808FB00BF94
:100A38004DF808EDFFF7E0FF94BF012000205DF8B6
:100A480008FB00BF4DF808EDFFF7CEFF94BF01206B
:100A580000205DF808FB00BF4DF808EDFFF7C4FF64
:100A680034BF012000205DF808FB00BF4FEA410CAD
:100A78007FEA6C5C02D150EA013C0AD14FEA430C90
:100A88007FEA6C5C02D152EA033C02D14FF00000CD
:100A980070474FF0010070474FEA410212F500120B
:100AA80015D211D56FF47873B3EB625212D94FEAAD
:100AB800C12343F0004343EA505311F0004F23FA97
:100AC80002F018BF404270474FF00000704750EAEC
:100AD800013005D111F0004008BF6FF000407047A9
:100AE8004FF00000704700BF4FEA4102B2F1E04307
:100AF80024BFB3F5001CDCF1FE5C0DD901F0004CFD
:100B08004FEAC0024CEA5070B2F1004F40EB83004C
:100B180008BF20F00100704711F0804F21D113F178
:100B28003872BCBF01F00040704741F480114FEAB1
:100B38005252C2F11802C2F1200C10FA0CF320FA3A
:100B480002F018BF40F001004FEAC1234FEAD32357
:100B580003FA0CFC40EA0C0023FA02F34FEA4303C1
:100B6800CCE77FEA625307D150EA01331EBF4FF04A
:100B7800FE4040F44000704701F0004040F0FE4065
:100B880040F40000704700BF80B500AF084B1B68F9
:100B9800074A43F010031360032000F00DF90F20FB
:100BA80000F008F802F092FA0023184680BD00BF52
:100BB8000020024080B582B000AF7860124B1A68FE
:100BC800124B1B7819464FF47A73B3FBF1F3B2FB5F
:100BD800F3F3184600F017F90346002B01D0012360
:100BE8000EE07B680F2B0AD8002279684FF0FF309F
:100BF80000F0EDF8064A7B681360002300E001234B
:100C080018460837BD4680BD0800002004000020B3
:100C18000000002080B400AF064B1B781A46064B34
:100C28001B681344044A136000BFBD465DF8047B8B
:100C3800704700BF040000208C00002080B400AF83
:100C4800034B1B681846BD465DF8047B704700BF20
:100C58008C00002080B485B000AF78607B6803F01A
:100C68000703FB600C4BDB68BB60BA684FF6FF03F9
:100C78001340BB60FB681A02BB68134343F0BF63B1
:100C880043F40033BB60044ABB68D36000BF143729
:100C9800BD465DF8047B704700ED00E080B400AF0E
:100CA800044BDB681B0A03F007031846BD465DF8D2
:100CB800047B704700ED00E080B483B000AF0346CA
:100CC8003960FB7197F90730002B0ADB3B68DAB211
:100CD8000C4997F907301201D2B20B4483F800236C
:100CE8000AE03B68DAB20849FB7903F00F03043BDA
:100CF8001201D2B20B441A7600BF0C37BD465DF81C
:100D0800047B704700E100E000ED00E080B489B0AA
:100D180000AFF860B9607A60FB6803F00703FB6115
:100D2800FB69C3F10703042B28BF0423BB61FB69DC
:100D38000433062B02D9FB69033B00E000237B61E7
:100D48004FF0FF32BB6902FA03F3DA43BB681A407B
:100D58007B699A404FF0FF317B6901FA03F3D9436D
:100D68007B680B40134318462437BD465DF8047B67
:100D78007047000080B582B000AF78607B68013BA7
:100D8800B3F1807F01D301230FE00A4A7B68013B5E
:100D980053600F214FF0FF30FFF78EFF054B002205
:100DA8009A60044B07221A60002318460837BD468C
:100DB80080BD00BF10E000E080B582B000AF786071
:100DC8007868FFF747FF00BF0837BD4680BD80B58C
:100DD80086B000AF0346B9607A60FB7300237B617D
:100DE800FFF75CFF78617A68B9687869FFF78EFF6A
:100DF800024697F90F3011461846FFF75DFF00BF0E
:100E08001837BD4680BD80B582B000AF786078687D
:100E1800FFF7B0FF034618460837BD4680BD0000FF
:100E280080B487B000AF7860396000237B614EE101
:100E38003B681A6801217B6901FA03F31340FB60E0
:100E4800FB68002B00F040813B685B6803F00303FC
:100E5800012B05D03B685B6803F00303022B30D1FC
:100E68007B689B683B617B695B00032202FA03F3A2
:100E7800DB433A6913403B613B68DA687B695B0096
:100E880002FA03F33A6913433B617B683A699A6053
:100E98007B685B683B6101227B6902FA03F3DB43F1
:100EA8003A6913403B613B685B681B0903F0010228
:100EB8007B6902FA03F33A6913433B617B683A6939
:100EC8005A603B685B6803F00303032B17D07B6809
:100ED800DB683B617B695B00032202FA03F3DB43B7
:100EE8003A6913403B613B689A687B695B0002FA88
:100EF80003F33A6913433B617B683A69DA603B68FC
:100F08005B6803F00303022B23D17B69DA087B6853
:100F1800083253F822303B617B6903F007039B00DA
:100F28000F2202FA03F3DB433A6913403B613B6843
:100F38001A697B6903F007039B0002FA03F33A6915
:100F480013433B617B69DA087B680832396943F8E7
:100F580022107B681B683B617B695B00032202FAF5
:100F680003F3DB433A6913403B613B685B6803F07A
:100F780003027B695B0002FA03F33A6913433B619E
:100F88007B683A691A603B685B6803F44033002B5E
:100F980000F09A80554B9B69544A43F001039361D2
:100FA800524B9B6903F00103BB60BB68504A7B69E5
:100FB8009B08023352F823303B617B6903F003033B
:100FC8009B000F2202FA03F3DB433A6913403B61AB
:100FD8007B68B3F1904F13D07B68464A93420DD09B
:100FE8007B68454A934207D07B68444A934201D1C3
:100FF800032306E0052304E0022302E0012300E0C6
:1010080000237A6902F00302920093403A6913437D
:101018003B6137497B699B0802333A6941F82320D1
:10102800374B9B683B61FB68DB433A6913403B6184
:101038003B685B6803F48013002B03D03A69FB68B4
:1010480013433B612E4A3B6993602D4BDB683B6140
:10105800FB68DB433A6913403B613B685B6803F418
:101068000013002B03D03A69FB6813433B61244A01
:101078003B69D360224B5B683B61FB68DB433A69A1
:1010880013403B613B685B6803F40033002B03D0DB
:101098003A69FB6813433B61194A3B695360184B33
:1010A8001B683B61FB68DB433A6913403B613B6863
:1010B8005B6803F48033002B03D03A69FB68134361
:1010C8003B610F4A3B6913607B6901337B613B6875
:1010D8001A687B6922FA03F3002B7FF4A9AE00BFDC
:1010E80000BF1C37BD465DF8047B70470010024006
:1010F800000001400004004800080048000C0048B7
:101108000004014080B582B000AF78607B68002B96
:1011180001D1012381E07B6893F84130DBB2002BD9
:1011280006D17B68002283F84020786801F076FDBC
:101138007B68242283F841207B681B681A687B68D7
:101148001B6822F001021A607B685A687B681B687A
:1011580022F070621A617B681B689A687B681B685A
:1011680022F400429A607B68DB68012B07D17B6818
:101178009A687B681B6842F400429A6006E07B68C4
:101188009A687B681B6842F404429A607B68DB6853
:10119800022B04D17B681B684FF400625A607B689D
:1011A8001B685B687A68126843F0007343F4004375
:1011B80053607B681B68DA687B681B6822F400420E
:1011C800DA607B681A697B685B6942EA03017B68BD
:1011D8009B691A027B681B680A43DA607B68D969D5
:1011E8007B681A6A7B681B680A431A607B681B68FD
:1011F8001A687B681B6842F001021A607B6800224B
:101208005A647B68202283F841207B6800221A6395
:101218007B68002283F84220002318460837BD4621
:1012280080BD000080B588B002AFF860084611465E
:101238001A4603467B810B463B811346FB80FB68BD
:1012480093F84130DBB2202B40F0F9803B6A002B49
:1012580002D0BB8C002B05D1FB684FF400725A6496
:101268000123EDE0FB6893F84030012B01D1022304
:10127800E6E0FB68012283F84020FFF7DFFC786195
:101288007B690093192301224FF40041F86800F0AC
:1012980055F90346002B01D00123D1E0FB68212238
:1012A80083F84120FB68402283F84220FB68002233
:1012B8005A64FB683A6A5A62FB68BA8C5A85FB68BA
:1012C80000225A63F8883A8979897B690193BB6A55
:1012D80000930346F86800F0B9F80346002B05D0E0
:1012E800FB68002283F840200123A9E0FB685B8D9E
:1012F8009BB2FF2B0ED9FB68FF221A85FB681B8D5A
:10130800DAB27989002300934FF08073F86800F00F
:10131800CFFA0FE0FB685B8D9AB2FB681A85FB6811
:101328001B8DDAB27989002300934FF00073F868B7
:1013380000F0BEFA7A69B96AF86800F04EF9034617
:10134800002B01D001237BE0FB685B6A1A78FB68FD
:101358001B689A62FB685B6A5A1CFB685A62FB68E6
:101368005B8D9BB2013B9AB2FB685A85FB681B8D6B
:10137800013B9AB2FB681A85FB685B8D9BB2002B18
:1013880034D0FB681B8D002B30D17B690093BB6A7E
:1013980000228021F86800F0D1F80346002B01D024
:1013A80001234DE0FB685B8D9BB2FF2B0ED9FB68D8
:1013B800FF221A85FB681B8DDAB279890023009316
:1013C8004FF08073F86800F073FA0FE0FB685B8DEC
:1013D8009AB2FB681A85FB681B8DDAB279890023FB
:1013E80000934FF00073F86800F062FAFB685B8DB9
:1013F8009BB2002B9ED17A69B96AF86800F034F97B
:101408000346002B01D001231AE0FB681B68202249
:10141800DA61FB681B685968FB681A680A4B0B405D
:101428005360FB68202283F84120FB68002283F880
:101438004220FB68002283F84020002300E00223BA
:1014480018461837BD4680BD00E800FE80B586B056
:1014580002AFF860084611461A4603467B810B46E0
:101468003B811346FB80FB88DAB27989204B0093D5
:101478004FF08073F86800F01BFAFA69B969F868E8
:1014880000F0ABF80346002B01D001232CE0FB88C9
:10149800012B05D13B89DAB2FB681B689A6215E01B
:1014A8003B891B0A9BB2DAB2FB681B689A62FA692D
:1014B800B969F86800F091F80346002B01D00123C0
:1014C80012E03B89DAB2FB681B689A62FB690093F9
:1014D800BB6900228021F86800F030F80346002B31
:1014E80001D0012300E0002318461037BD4680BD17
:1014F8000020008080B483B000AF78607B681B68F0
:101508009B6903F00203022B03D17B681B6800224E
:101518009A627B681B689B6903F00103012B07D063
:101528007B681B689A697B681B6842F001029A61B4
:1015380000BF0C37BD465DF8047B704780B584B0AA
:1015480000AFF860B9603B601346FB7131E03B685F
:10155800B3F1FF3F2DD0FFF771FB0246BB69D31AE9
:101568003A689A4202D33B68002B22D1FB681B6879
:101578009A69BB681340BA689A420CBF01230023DA
:10158800DBB21A46FB799A4213D1FB685B6C43F0D5
:101598002002FB685A64FB68202283F84120FB681C
:1015A800002283F84220FB68002283F840200123B0
:1015B8000FE0FB681B689A69BB681340BA689A42D7
:1015C8000CBF01230023DBB21A46FB799A42BED036
:1015D800002318461037BD4680BD80B584B000AFE3
:1015E800F860B9607A6033E07A68B968F86800F042
:1015F8007FF80346002B01D0012331E0BB68B3F12B
:10160800FF3F25D0FFF71AFB02467B68D31ABA685A
:101618009A4202D3BB68002B1AD1FB681B689B69EE
:1016280003F00203022B13D0FB685B6C43F020022B
:10163800FB685A64FB68202283F84120FB6800227B
:1016480083F84220FB68002283F84020012307E04A
:10165800FB681B689B6903F00203022BC4D10023BB
:1016680018461037BD4680BD80B584B000AFF8601D
:10167800B9607A602FE07A68B968F86800F038F8DD
:101688000346002B01D001232DE0FFF7D7FA0246CD
:101698007B68D31ABA689A4202D3BB68002B1AD166
:1016A800FB681B689B6903F02003202B13D0FB68A1
:1016B8005B6C43F02002FB685A64FB68202283F8C5
:1016C8004120FB68002283F84220FB68002283F84F
:1016D8004020012307E0FB681B689B6903F0200397
:1016E800202BC8D1002318461037BD4680BD000006
:1016F80080B58AB000AFF860B9607A60002387F8D7
:101708002730FB681B689B69BB6100233B627B68D1
:10171800FB61BB6903F01003002B68D0FB681B68F2
:101728001022DA6149E0BB68B3F1FF3F45D0FFF70B
:1017380085FA0246FB69D31ABA689A4202D3BB6893
:10174800002B3AD1FB681B685B6803F480437B611C
:10175800FB6893F84230FB74FB681B689B6903F4D1
:101768000043B3F5004F21D17B69B3F5804F1DD0FD
:10177800FB7C202B1AD0FB681B685A68FB681B6827
:1017880042F480425A60FFF759FAF8610EE0FFF719
:1017980055FA0246FB69D31A192B07D93B6A43F05D
:1017A80020033B62012387F8273006E0FB681B68AB
:1017B8009B6903F02003202BE9D1FB681B689B6918
:1017C80003F02003202B03D097F82730002BAAD052
:1017D80097F82730002B03D1FB681B682022DA61B9
:1017E8003B6A43F004033B62012387F82730FB6818
:1017F8001B689B69BB61BB6903F48073002B0BD02A
:101808003B6A43F001033B62FB681B684FF480723C
:10181800DA61012387F82730BB6903F48063002B62
:101828000BD03B6A43F008033B62FB681B684FF42C
:101838008062DA61012387F82730BB6903F40073FB
:10184800002B0BD03B6A43F002033B62FB681B682A
:101858004FF40072DA61012387F8273097F82730B0
:10186800002B1CD0F868FFF745FEFB681B68596819
:10187800FB681A680D4B0B405360FB685A6C3B6A57
:101888001A43FB685A64FB68202283F84120FB68EE
:10189800002283F84220FB68002283F8402097F852
:1018A800273018462837BD4680BD00BF00E800FE37
:1018B80080B487B000AFF8607B600B467B8113462D
:1018C8007B727B89C3F309027B7A1B0403F47F03D1
:1018D8001A437B681A433B6A134323F000437B6136
:1018E800FB681B685A683B6A5B0D03F48061084B10
:1018F8000B43DB4302EA0301FB681B687A690A436E
:101908005A6000BF1C37BD465DF8047B704700BFB6
:10191800FF63FF0380B483B000AF786039607B68F1
:1019280093F84130DBB2202B38D17B6893F84030F4
:10193800012B01D1022332E07B68012283F8402089
:101948007B68242283F841207B681B681A687B68BF
:101958001B6822F001021A607B681B681A687B68A2
:101968001B6822F480521A607B681B6819687B68C0
:101978001B683A680A431A607B681B681A687B68A8
:101988001B6842F001021A607B68202283F841201C
:101998007B68002283F84020002300E002231846D9
:1019A8000C37BD465DF8047B704780B485B000AF46
:1019B800786039607B6893F84130DBB2202B39D1ED
:1019C8007B6893F84030012B01D1022333E07B6818
:1019D800012283F840207B68242283F841207B6819
:1019E8001B681A687B681B6822F001021A607B6812
:1019F8001B681B68FB60FB6823F47063FB603B6833
:101A08001B02FA681343FB607B681B68FA681A605C
:101A18007B681B681A687B681B6842F001021A60C1
:101A28007B68202283F841207B68002283F84020CD
:101A3800002300E0022318461437BD465DF8047BF6
:101A48007047000080B48BB000AF0023FB61002317
:101A5800BB6100237B6200237B6100233B62294B2F
:101A68005B68FB61FB6903F00C03042B02D0082BB5
:101A780003D03CE0244B3B623CE0FB6903F4701369
:101A88004FF47012BA60BA6892FAA2F27A607A6871
:101A9800B2FA82F2D2B2D3401C4AD35C7B61194BB2
:101AA800DB6A03F00F030F223A613A6992FAA2F255
:101AB800FA60FA68B2FA82F2D2B2D340144AD35C1E
:101AC800BB61FB6903F48033002B08D00E4ABB6965
:101AD800B2FBF3F27B6902FB03F37B6204E07B69F0
:101AE8000C4A02FB03F37B627B6A3B6202E0064B13
:101AF8003B6200BF3B6A18462C37BD465DF8047B45
:101B0800704700BF0010024000127A002C7B0008CA
:101B18003C7B000800093D0080B400AF034B1B6804
:101B28001846BD465DF8047B704700BF08000020DA
:101B380080B582B000AFFFF7EFFF01460B4B5B6843
:101B480003F4E0634FF4E0627A607A6892FAA2F2F2
:101B58003A603A68B2FA82F2D2B2D340044AD35C0D
:101B680021FA03F318460837BD4680BD001002402D
:101B78004C7B000880B582B000AFFFF7CDFF01466F
:101B88000B4B5B6803F460534FF460527A607A68D9
:101B980092FAA2F23A603A68B2FA82F2D2B2D3402A
:101BA800044AD35C21FA03F318460837BD4680BDC2
:101BB800001002404C7B000880B582B000AF78600E
:101BC8007B68002B01D1012340E07B68DB6F002B91
:101BD80006D17B68002283F87820786801F0CEFF70
:101BE8007B682422DA677B681B681A687B681B6835
:101BF80022F001021A60786800F0B6F80346012B5B
:101C080001D1012322E07B685B6A002B02D078684F
:101C180000F0E0F97B681B685A687B681B6822F44F
:101C280090425A607B681B689A687B681B6822F040
:101C38002A029A607B681B681A687B681B6842F0F6
:101C480001021A60786800F067FA034618460837F8
:101C5800BD4680BD80B58AB002AFF860B9603B6010
:101C68001346FB80FB68DB6F202B78D1BB68002B09
:101C780002D0FB88002B01D1012371E0FB68002210
:101C8800C3F88420FB682122DA67FEF7D7FF786162
:101C9800FB68FA88A3F85020FB68FA88A3F852205A
:101CA800FB689B68B3F5805F08D1FB681B69002B54
:101CB80004D10023FB61BB68BB6103E0BB68FB6127
:101CC8000023BB6130E03B6800937B6900228021E0
:101CD800F86800F0C9FA0346002B04D0FB682022FC
:101CE800DA6703233CE0FB69002B0BD1BB691A8838
:101CF800FB681B68C2F3080292B21A85BB690233FB
:101D0800BB6108E0FB691A78FB681B6892B21A8508
:101D1800FB690133FB61FB68B3F852309BB2013BAE
:101D28009AB2FB68A3F85220FB68B3F852309BB212
:101D3800002BC8D13B6800937B6900224021F868DA
:101D480000F092FA0346002B04D0FB682022DA67E1
:101D5800032305E0FB682022DA67002300E0022362
:101D680018462037BD4680BD80B588B000AF786082
:101D78000023BB777B689A687B681B691A437B687A
:101D88005B691A437B68DB6913437B617B681B686B
:101D98001A688A4B13407A68126879690B43136092
:101DA8007B681B685B6823F440517B68DA687B6852
:101DB8001B680A435A607B689B697B617B681B6A66
:101DC8007A6913437B617B681B689B6823F43061E5
:101DD8007B681B687A690A439A607B681B68784A43
:101DE800934220D1774B1B6B03F00303032B17D8C7
:101DF80001A252F823F000BF111E00081D1E0008A2
:101E0800231E0008171E00080023FB771DE002238D
:101E1800FB771AE00423FB7717E00823FB7714E02D
:101E28001023FB7711E07B681B68674A934202D155
:101E38000023FB7709E07B681B68644A934202D160
:101E48000023FB7701E01023FB777B68DB69B3F5A0
:101E5800004F5AD1FB7F082B27D801A252F823F054
:101E68008D1E0008951E00089D1E0008B31E000860
:101E7800A31E0008B31E0008B31E0008B31E000806
:101E8800AB1E0008FFF754FEB86113E0FFF772FEBF
:101E9800B8610FE04E4BBB610CE0FFF7D3FDB861B2
:101EA80008E04FF40043BB6104E00023BB61012359
:101EB800BB7700BFBB69002B74D0BB695A007B6835
:101EC8005B685B081A447B685B68B2FBF3F33B61B1
:101ED8003B690F2B16D93B69B3F5803F12D23B699A
:101EE8009BB223F00F03FB813B695B089BB203F0B5
:101EF80007039AB2FB891343FB817B681B68FA8945
:101F0800DA604FE00123BB774CE0FB7F082B28D831
:101F180001A252F823F000BF451F00084D1F00081A
:101F2800551F00086B1F00085B1F00086B1F000887
:101F38006B1F00086B1F0008631F0008FFF7F8FD00
:101F4800B86113E0FFF716FEB8610FE0204BBB61E4
:101F58000CE0FFF777FDB86108E04FF40043BB6180
:101F680004E00023BB610123BB7700BFBB69002BE2
:101F780018D07B685B685A08BB691A447B685B6841
:101F8800B2FBF3F33B613B690F2B09D93B69B3F50E
:101F9800803F05D23B699AB27B681B68DA6001E032
:101FA8000123BB777B6800229A667B680022DA6689
:101FB800BB7F18462037BD4680BD00BFF369FFEFE1
:101FC8000038014000100240004400400048004032
:101FD80000127A0080B483B000AF78607B685B6AD7
:101FE80003F00103002B0AD07B681B685B6823F4AD
:101FF80000317B689A6A7B681B680A435A607B6871
:102008005B6A03F00203002B0AD07B681B685B68DD
:1020180023F480317B68DA6A7B681B680A435A605C
:102028007B685B6A03F00403002B0AD07B681B689B
:102038005B6823F480217B681A6B7B681B680A4302
:102048005A607B685B6A03F00803002B0AD07B6840
:102058001B685B6823F400417B685A6B7B681B68CC
:102068000A435A607B685B6A03F01003002B0AD0AE
:102078007B681B689B6823F480517B689A6B7B683C
:102088001B680A439A607B685B6A03F02003002B95
:102098000AD07B681B689B6823F400517B68DA6B65
:1020A8007B681B680A439A607B685B6A03F040039D
:1020B800002B1AD07B681B685B6823F480117B684F
:1020C8001A6C7B681B680A435A607B681B6CB3F503
:1020D800801F0AD17B681B685B6823F4C0017B689A
:1020E8005A6C7B681B680A435A607B685B6A03F01A
:1020F8008003002B0AD07B681B685B6823F40021EF
:102108007B689A6C7B681B680A435A6000BF0C376F
:10211800BD465DF8047B704780B598B002AF786023
:102128007B680022C3F88420FEF788FD78657B6809
:102138001B681B6803F00803082B2ED16FF07E4341
:1021480000937B6D00224FF40011786800F08CF842
:102158000346002B21D07B681B68BB63BB6B53E82D
:10216800003F7B637B6B23F080033B657B681B68C8
:102178001A463B6D7B643A64396C7A6C41E80023FB
:10218800FB63FB6B002BE6D17B682022DA677B6858
:10219800002283F87820032362E07B681B681B68B1
:1021A80003F00403042B49D16FF07E4300937B6D49
:1021B80000224FF48001786800F056F80346002B9F
:1021C8003CD07B681B687B627B6A53E8003F3B62BC
:1021D8003B6A23F49073FB647B681B681A46FB6CAC
:1021E8003B63FA62F96A3A6B41E80023BB62BB6A57
:1021F800002BE6D17B681B6808333B613B6953E8D9
:10220800003FFB60FB6823F00103BB647B681B682D
:102218000833BA6CFA61BB61B969FA6941E800230D
:102228007B617B69002BE5D17B682022C3F8802085
:102238007B68002283F87820032311E07B68202242
:10224800DA677B682022C3F880207B6800221A6640
:102258007B6800225A667B68002283F87820002376
:1022680018465837BD4680BD80B584B000AFF860C9
:10227800B9603B601346FB7149E0BB69B3F1FF3FAE
:1022880045D0FEF7DBFC02463B68D31ABA699A428E
:1022980002D3BB69002B01D1032348E0FB681B680C
:1022A8001B6803F00403002B31D0FB681B68DB6953
:1022B80003F00803082B10D1FB681B6808221A6278
:1022C800F86800F038F8FB680822C3F88420FB6837
:1022D800002283F87820012329E0FB681B68DB696A
:1022E80003F40063B3F5006F11D1FB681B684FF46A
:1022F80000621A62F86800F01EF8FB682022C3F832
:102308008420FB68002283F8782003230FE0FB6811
:102318001B68DA69BB681340BA689A420CBF01238C
:102328000023DBB21A46FB799A42A6D0002318464E
:102338001037BD4680BD80B495B000AF78607B682B
:102348001B687B637B6B53E8003F3B633B6B23F469
:102358009073FB647B681B681A46FB6C3B64FA63EA
:10236800F96B3A6C41E80023BB63BB6B002BE6D1E9
:102378007B681B6808333B623B6A53E8003FFB619C
:10238800FB6923F00103BB647B681B680833BA6CE4
:10239800FA62BB62B96AFA6A41E800237B627B6A27
:1023A800002BE5D17B681B6E012B18D17B681B685D
:1023B800FB60FB6853E8003FBB60BB6823F0100379
:1023C8007B647B681B681A467B6CBB617A617969A0
:1023D800BA6941E800233B613B69002BE6D17B6881
:1023E8002022C3F880207B6800221A667B680022BE
:1023F8009A6600BF5437BD465DF8047B70470000FD
:1024080080B483B000AF78602E4B1B682D4A03F070
:102418007E4313602B4B1B6803F00073002B14BF23
:1024280001230023DBB2002B00D0F3E7254B5B68C8
:10243800244A5B0C5B045360224B5B687A685278D1
:10244800920211461F4A0B4353601E4B5B687A6821
:102458001278520511461B4A0B4353601A4B1B68EE
:102468007A6892781146184A0B431360154B1B681B
:10247800144A43F080731360124B1B6803F0007317
:10248800002B0CBF01230023DBB2002B00D0F3E7A5
:102498000C4B5B680B4A43F002035360094B5B68C3
:1024A80003F00203002B0CBF01230023DBB2002B37
:1024B80000D0F3E700BF18460C37BD465DF8047B33
:1024C800704700BF001002400020024080B483B073
:1024D80000AF7860544B1B68534A23F00203136023
:1024E800514B5B6803F00203002B0CBF0123002350
:1024F800DBB2002B00D0F3E74B4B1B684A4A43F092
:1025080001031360484B5B68002B0CBF01230023B9
:10251800DBB2002B00D0F5E7434B1B687A681278D2
:10252800D2011146404A0B4313603F4B1B687A683F
:102538005278920111463C4A0B4313603A4B1B6890
:102548007A68927852011146374A0B431360364B2A
:102558001B687A68D27812011146334A0B4313601C
:10256800314B1B687A681279D20011462E4A0B4308
:1025780013602D4B1B687A685279920011462A4ADB
:102588000B431360284BDB697A689279D2071146AE
:10259800254A0B43D361244BDB697A68D2799207C9
:1025A8001146214A0B43D3611F4BDB697A68127AC3
:1025B80011461D4A0B43D3611B4BDB697A68527A7B
:1025C800172A94BF01220022D2B21146164A0B43A1
:1025D800D361154BDB697A68D27A12051146124A23
:1025E8000B43D361104BDB697A68927A1204114667
:1025F8000D4A0B43D3610C4B1B680B4A23F00103B4
:102608001360094B5B6803F00103002B14BF01231F
:102618000023DBB2002B00D0F3E700BF18460C37CD
:10262800BD465DF8047B70470064004080B485B007
:1026380000AF7860654BD3F80032644A43F0010379
:10264800C2F80032614BD3F81C327A685268012113
:1026580001FA02F2D24311465C4A0B40C2F81C321E
:102668005A4BD3F804327A68127811467A6852685D
:1026780001FA02F21146554A0B43C2F804327B684C
:102688005B68FB607B685B78102B34D14F4BD3F8C9
:102698000C327A685268012101FA02F2D2431146DB
:1026A8004A4A0B40C2F80C327B681B7A5B01474AE6
:1026B8001946FB68483342F833107B685B7A5B0540
:1026C800424A1946FB68483342F833107B689B7AC4
:1026D8005B013E4A1946FB684833DB0013445960E6
:1026E8007B68DB7A5B05394A1946FB684833DB00AF
:1026F800134459602EE07B685B78202B2AD1334B3A
:10270800D3F80C327A685268012101FA02F21146B4
:102718002E4A0B43C2F80C322C4AFB68483352F855
:1027280033307A68127A520528491A43FB684833CD
:1027380041F83320254AFB684833DB0013445B68C3
:102748007A68527A520521491A43FB684833DB00FC
:102758000B445A607B689B78002B0DD01B4BD3F839
:1027680014327A685268012101FA02F21146174AB6
:102778000B43C2F814320DE0144BD3F814327A68C4
:102788005268012101FA02F2D24311460F4A0B4066
:10279800C2F814320D4BD3F81C327A685268012102
:1027A80001FA02F21146094A0B43C2F81C32074BE0
:1027B800D3F80032054A23F00103C2F8003200BF03
:1027C80018461437BD465DF8047B70470064004026
:1027D80080B485B000AFF860384680E80E00BB785A
:1027E800002B0DD0514B1B6903F00103002B0CBFCC
:1027F80001230023DBB2002B10D04FF0FF338EE013
:102808004A4BDB6803F00103002B0CBF01230023B4
:10281800DBB2002B02D04FF0FF3380E0434ABB7895
:102828001B331B0113441B6803F00102FB685A6049
:102838003E4ABB781B331B01134404331B6803F067
:102848000702FB689A60394ABB781B331B011344A3
:1028580004331B681B0ADAB2FB681A61334ABB7877
:102868001B331B01134404331B681A0CFB68DA6022
:102878002E4ABB781B01134403F5DC731B685AB25C
:10288800FB681A75294ABB781B01134403F5DC73EE
:102898001B681B0A5AB2FB685A75244ABB781B018D
:1028A800134403F5DC731B681B0C5AB2FB689A755A
:1028B8001E4ABB781B01134403F5DC731B681B0E0F
:1028C8005AB2FB68DA75194ABB781B01134403F541
:1028D800DC731B685AB2FB681A76144ABB781B0172
:1028E800134403F5DC731B681B0A5AB2FB685A765B
:1028F8000E4ABB781B01134403F5DC731B681B0CE1
:102908005AB2FB689A76094ABB781B01134403F54F
:10291800DC731B681B0E5AB2FB68DA760023184674
:102928001437BD465DF8047B704700BF0064004063
:1029380080B400AF044BDB681B0A03F0070318469A
:10294800BD465DF8047B704700ED00E080B483B0BD
:1029580000AF0346FB7197F90730002B0BDBFB79BF
:1029680003F01F02074997F907305B09012000FAB5
:1029780002F241F8232000BF0C37BD465DF8047B06
:10298800704700BF00E100E080B483B000AF0346A9
:10299800FB7197F90730002B12DBFB7903F01F025C
:1029A8000A4997F907305B09012000FA02F220333F
:1029B80041F82320BFF34F8F00BFBFF36F8F00BFD5
:1029C80000BF0C37BD465DF8047B704700E100E0AE
:1029D80080B483B000AF0346FB7197F90730002B32
:1029E8000CDBFB7903F01F02074997F907305B09F5
:1029F800012000FA02F2603341F8232000BF0C37AF
:102A0800BD465DF8047B704700E100E080B483B008
:102A180000AF03463960FB7197F90730002B0ADBDA
:102A28003B68DAB20C4997F907301201D2B20B446D
:102A380083F800230AE03B68DAB20849FB7903F01F
:102A48000F03043B1201D2B20B441A7600BF0C37B5
:102A5800BD465DF8047B704700E100E000ED00E052
:102A680080B489B000AFF860B9607A60FB6803F0A1
:102A78000703FB61FB69C3F10703042B28BF042389
:102A8800BB61FB690433062B02D9FB69033B00E0F9
:102A980000237B614FF0FF32BB6902FA03F3DA438C
:102AA800BB681A407B699A404FF0FF317B6901FA95
:102AB80003F3D9437B680B40134318462437BD46BC
:102AC8005DF8047B7047000080B588B000AF07F15F
:102AD8000C0300221A605A609A60DA601A612C4B63
:102AE8005B692B4A43F400335361294B5B6903F458
:102AF8000033BB60BB68264B5B69254A43F48023DF
:102B08005361234B5B6903F480237B607B68204B14
:102B1800DB691F4A43F00073D3611D4BDB6903F087
:102B280000733B603B684FF4C053FB6002233B617A
:102B380000237B610323BB610923FB6107F10C03BD
:102B480019464FF09040FEF76BF9124B5B69114A3A
:102B580043F002035361FFF7EBFE03460022002116
:102B68001846FFF77DFF034619461420FFF74EFF6E
:102B78001420FFF7EBFE084B00229A600020FFF7B5
:102B880027FF0020FFF700FF00BF2037BD4680BDAC
:102B98000010024000640040002C004080B500AFE7
:102BA8001B4B1C4A1A601A4B1B4A5A60184B0022CE
:102BB8009A60174B0122DA60154B00221A61144BF8
:102BC80000225A61124B00229A61114B0022DA61ED
:102BD8000F4B00221A620E48FEF794FA0346002BA8
:102BE80001D000F00FFA00210948FEF793FE0346D2
:102BF800002B01D000F006FA00210548FEF7D5FEAB
:102C08000346002B01D000F0FDF900BF80BD00BFD6
:102C180090000020005400400E09002080B58AB0C2
:102C280000AF786007F1140300221A605A609A60B6
:102C3800DA601A617B681B68264A934245D1264BA5
:102C48005B69254A43F400335361234B5B6903F402
:102C580000333B613B69204B5B691F4A43F4802387
:102C680053611D4B5B6903F48023FB60FB684FF4E1
:102C780080437B611223BB610023FB6103233B621A
:102C880004237B6207F1140319464FF09040FEF7C6
:102C9800C7F840237B611223BB610023FB61032338
:102CA8003B6204237B6207F1140319460B48FEF7C5
:102CB800B7F8094BDB69084A43F40013D361064BA4
:102CC800DB6903F40013BB60BB6800BF2837BD464F
:102CD80080BD00BF005400400010024000040048BE
:102CE80080B584B000AF78607B680A2B08D10D23CB
:102CF800FB6007F10C01012301220748FEF7AAFF38
:102D0800391D012301220448FEF7A4FF00231846B9
:102D18001037BD4680BD00BFF4000020B0B5ADF54A
:102D2800187D04AF5A4B1B689B680021184604F0B5
:102D380011FBFDF729FFFFF7C7FE00F0EFFEFFF7D5
:102D48002DFF00F009F900F018F900F039F94021D9
:102D580042F2107000F0D4FA402142F2107000F0F4
:102D680029FB402142F2107000F094FB402142F20E
:102D7800107000F0E9FB402142F2107000F03EFCB8
:102D8800444B07F50E741D460FCD0FC495E803009C
:102D980084E80300404B07F508741D460FCD0FC4A7
:102DA80095E8030084E803003C4B07F502741D46D0
:102DB8000FCD0FC495E8030084E80300384B07F5EE
:102DC800F8741D460FCD0FC495E8030084E803008E
:102DD800344A07F5F47392E8030083E8030007F127
:102DE800480407F50E731946204600F017FD6834AD
:102DF80007F508731946204600F010FD683407F5FA
:102E080002731946204600F009FD04F1680307F52E
:102E1800F8721146184600F001FD07F1480107F164
:102E2800080007F5F4730CCB00F030FF07F51473B6
:102E3800A3F5137300221A706423029301230193EC
:102E48003B1D009301236B2200211748FEF7EAF986
:102E580007F51473A3F5147318221A7064230293E8
:102E6800012301933B46009301231C2200210E48B5
:102E7800FEF7D8F907F108030121184601F0CAF94D
:102E880007F108030121184600F063FFF2E700BFCD
:102E98000C000020A87A0008C07A0008D87A000838
:102EA800F07A0008087B00089000002080B58EB0FA
:102EB80006AF0323FB610023BB6108237B6100236A
:102EC8003B610023FB6000237B600023BB60094A51
:102ED80002AB07CA83E807003B1D0193FB68009318
:102EE8003B697A69B969F86900F006F800BF2037CC
:102EF800BD4680BDE400002080B58CB000AFF8600E
:102F0800B9607A603B60FB683B61BB687B617B684A
:102F1800BB613B68FB61BB6B3B620023FB62FB6AE6
:102F2800072B0EDCFB6AFA6B134493F9001007F1C8
:102F38002402FB6A13440A461A70FB6A0133FB62D7
:102F4800EDE707F1100007F140030ECBFFF740FC57
:102F580000BF3037BD4680BD80B582B000AF0E23BC
:102F68003B7104237B710223BB713B1D1846FFF79D
:102F780047FA00BF0837BD4680BD80B584B000AFB2
:102F880000233B7100237B710023BB710023FB717D
:102F980000233B7200237B720023BB720123FB7268
:102FA80004233B7301237B730B23BB730423FB7341
:102FB8003B1D1846FFF78AFA00BF1037BD4680BD93
:102FC80080B500AF0E4B01221A700D4B10225A70BB
:102FD8000B4B00229A700A4B00225A60084B0322BE
:102FE8001A72074B00225A72054B00229A72044B40
:102FF8000022DA720248FFF719FB00BF80BD00BF4C
:10300800E400002080B400AF72B600BFFEE7000005
:1030180080B586B000AF07F1080383E803007A6043
:103028007868FDF71FFA21A3D3E90023FDF7AEFB6B
:1030380002460B46104619461EA3D3E90023FDF7A6
:10304800C5F802460B46104619461CA3D3E90023CF
:10305800FDF772FA02460B4610461946FDF744FD85
:1030680003467B617869FDF70FFA16A3D3E90023BD
:10307800FDF7F2FC0346002B01D00B4B7B61BB68CC
:103088005BB2FA6851B2D7ED057AFDEEE77A17EE32
:10309800902A12B2184600F00BFB00BF1837BD4645
:1030A80080BD00BFAFF30080CDCCCC3D182D44547B
:1030B800FB2109409A9999999999A93F0000000024
:1030C8000088C3409A9999999999B93F80B483B077
:1030D80000AF0F4B9B690E4A43F0010393610C4B01
:1030E8009B6903F001037B607B68094BDB69084A35
:1030F80043F08053D361064BDB6903F080533B6098
:103108003B6800BF0C37BD465DF8047B704700BFC5
:103118000010024080B400AFFEE780B400AFFEE7C5
:1031280080B400AFFEE780B400AFFEE780B400AF24
:10313800FEE780B400AF00BFBD465DF8047B704772
:1031480080B400AF00BFBD465DF8047B704780B413
:1031580000AF00BFBD465DF8047B704780B500AF87
:10316800FDF758FD00BF80BD80B400AF01231846AD
:10317800BD465DF8047B704780B582B000AF7860CB
:10318800396003F0A7FF034616221A604FF0FF3399
:1031980018460837BD4680BD80B582B000AF78605C
:1031A8004FF0FF317868FFF7E7FFFEE780B586B09C
:1031B80000AFF860B9607A6000237B610AE0AFF382
:1031C80000800146BB685A1CBA60CAB21A707B6993
:1031D80001337B617A697B689A42F0DB7B68184629
:1031E8001837BD4680BD80B586B000AFF860B960BD
:1031F8007A6000237B6109E0BB685A1CBA601B78BF
:103208001846FFF76DFD7B6901337B617A697B683E
:103218009A42F1DB7B6818461837BD4680BD80B4FA
:1032280083B000AF78604FF0FF3318460C37BD46C7
:103238005DF8047B704780B483B000AF7860396074
:103248003B684FF400525A60002318460C37BD46BD
:103258005DF8047B704780B485B000AFF860B96052
:103268007A60002318461437BD465DF8047B704722
:1032780080B586B000AF7860144A154BD31A7B61CD
:103288007B693B61134B1B68002B02D1114B124A1F
:103298001A60104B1A687B6813443A699A4207D23D
:1032A80003F018FF03460C221A604FF0FF3309E0C1
:1032B800084B1B68FB60074B1A687B681344054A78
:1032C8001360FB6818461837BD4680BD00300020E3
:1032D80000040000F00000209001002080B400AF3E
:1032E800064BD3F88830054A43F47003C2F8883097
:1032F80000BFBD465DF8047B704700BF00ED00E0ED
:1033080080B483B000AF03460A46FB801346BB80F7
:10331800274AFB88D362264AB7F904309362244BC4
:103328009B69234A43F4C0339361214B9B69204A2C
:1033380043F4C07393611E4BDB691D4A43F4C033E9
:10334800D3611B4BDB691A4A43F4C073D361184B32
:103358009B69174A43F400639361154B9B69144AB0
:1033680043F008039361124BDB69114A43F400638D
:10337800D3610F4BDB690E4A43F00803D3610C4B52
:103388001B680B4A43F080031360094B5B69084ACA
:1033980043F001035361064B1B68054A43F00103E0
:1033A800136000BF0C37BD465DF8047B704700BF53
:1033B800002C014080B483B000AF03460A46FB806E
:1033C8001346BB804FF08042FB88D3624FF08042A7
:1033D800B7F9043093624FF080439B694FF0804205
:1033E80043F4C03393614FF080439B694FF08042B0
:1033F80043F4C07393614FF08043DB694FF0804220
:1034080043F4C033D3614FF08043DB694FF080420F
:1034180043F4C073D3614FF080439B694FF08042FF
:1034280043F4006393614FF080439B694FF08042FF
:1034380043F0080393614FF08043DB694FF080420B
:1034480043F40063D3614FF08043DB694FF080425F
:1034580043F00803D3614FF080431B684FF080426C
:1034680043F0800313604FF080435B694FF0804264
:1034780043F0010353614FF080431B684FF08042D3
:1034880043F00103136000BF0C37BD465DF8047BB1
:103498007047000080B483B000AF03460A46FB8043
:1034A8001346BB80274AFB88D362264AB7F9043003
:1034B8009362244B9B69234A43F4C0339361214BA5
:1034C8009B69204A43F4C07393611E4BDB691D4A14
:1034D80043F4C033D3611B4BDB691A4A43F4C0730E
:1034E800D361184B9B69174A43F400639361154BEA
:1034F8009B69144A43F008039361124B5B6D114AB0
:1035080043F4006353650F4B5B6D0E4A43F00803A9
:1035180053650C4B1B680B4A43F080031360094B3F
:103528005B69084A43F001035361064B1B68054A6F
:1035380043F00103136000BF0C37BD465DF8047B00
:10354800704700BF0004004080B483B000AF03465A
:103558000A46FB801346BB80274AFB88D362264A6B
:10356800B7F904309362244B9B69234A43F4C03370
:103578009361214B9B69204A43F4C07393611E4BAE
:10358800DB691D4A43F4C033D3611B4BDB691A4A1C
:1035980043F4C073D361184B9B69174A43F4006323
:1035A8009361154B9B69144A43F008039361124BCE
:1035B8005B6D114A43F4006353650F4B5B6D0E4A14
:1035C80043F0080353650C4B1B680B4A43F0800318
:1035D8001360094B5B69084A43F001035361064BCA
:1035E8001B68054A43F00103136000BF0C37BD4652
:1035F8005DF8047B704700BF0044014080B483B08D
:1036080000AF03460A46FB801346BB80274AFB8867
:10361800D362264AB7F904309362244B9B69234A44
:1036280043F4C0339361214B9B69204A43F4C07330
:1036380093611E4BDB691D4A43F4C033D3611B4BB6
:10364800DB691A4A43F4C073D361184B9B69174A64
:1036580043F400639361154B9B69144A43F00803D4
:103668009361124B5B6D114A43F4006353650F4B32
:103678005B6D0E4A43F0080353650C4B1B680B4AFD
:1036880043F080031360094B5B69084A43F0010368
:103698005361064B1B68054A43F00103136000BFE2
:1036A8000C37BD465DF8047B704700BF00480140F9
:1036B80080B483B000AF0346FB710B46BB71134661
:1036C800BB8097F90730012B24D197F90630012BDD
:1036D80004D14F4AB7F9043053631BE097F9063019
:1036E800022B04D14A4AB7F90430936312E097F9E0
:1036F8000630032B04D1464AB7F90430D36309E0F6
:103708004FF0804300225A63414B00229A63404B9A
:103718000022DA6397F90730022B37D197F9063080
:10372800012B05D14FF08042B7F9043053632DE0E7
:1037380097F90630022B05D14FF08042B7F90430D3
:10374800936323E097F90630032B05D14FF08042AD
:10375800B7F90430D36319E097F90630042B05D183
:103768004FF08042B7F9043013640FE04FF0804304
:1037780000225A634FF0804300229A634FF080433F
:103788000022DA634FF0804300221A6497F9073069
:10379800032B2FD197F90630012B04D11D4AB7F915
:1037A8000430536326E097F90630022B04D1194AF6
:1037B800B7F9043093631DE097F90630032B04D161
:1037C800144AB7F90430D36314E097F90630032B91
:1037D80004D1104AB7F9043013640BE00D4B0022F2
:1037E8005A630C4B00229A630A4B0022DA63094B96
:1037F80000221A6497F90730102B03D1064AB7F94B
:103808000430536300BF0C37BD465DF8047B704736
:10381800002C0140000400400044014080B483B003
:1038280000AF7860396079684FF00002134BC1E946
:103838000A2379684FF00002104BC1E90C237B681A
:103848003A68503392E8030083E803007B683A68DB
:103858005833083292E8030083E803007B683A682B
:103868006033103292E8030083E803007B6818464F
:103878000C37BD465DF8047B704700BF0000F03F81
:10388800B0B52DED028B88B000AFF86187ED040B61
:1038980087ED021B87ED002BFB69D3ED127A02201E
:1038A800B0EE670A00F0FDF855EC104BFB6993ED9C
:1038B8000C7B0220B0EE470AF0EE670A00F012F91E
:1038C80053EC102B20462946FCF780FC02460B4699
:1038D80014461D46FB69D3ED137A0220B0EE670A41
:1038E80000F0DFF853EC102B20462946FCF76CFC5F
:1038F80002460B4614461D46FB69D3ED127A77EE55
:10390800A77A17EE900AFCF7BFFDFB69D3E90C23F1
:10391800FCF712FE02460B4620462946FCF736FF06
:1039280002460B4614461D46FB6993ED0A8BFB695C
:10393800D3E90E01D7E90023FCF746FC02460B4603
:1039480043EC172BB0EE471AF0EE671AB0EE480AB0
:10395800F0EE680A01F0C4FA53EC102B2046294611
:10396800FCF732FC02460B4610461946FDF794F860
:103978000246FB695A60FB695A68FB69583393E849
:103988000300FFF745FBFB69D3ED127A0220B0EE86
:10399800670A00F086F855EC104BFB69D3ED137AF3
:1039A8000220B0EE670A00F07CF853EC102B20469A
:1039B8002946FCF70BFC02460B4614461D46FB69DC
:1039C80093ED0C7B0220B0EE470AF0EE670A00F098
:1039D80089F853EC102B20462946FCF7F5FB0246E4
:1039E8000B4614461D46FB69D3ED127A37EEA77ACB
:1039F800FB69D3ED137A67EE277A17EE900AFCF786
:103A080043FD02460B4620462946FCF7BFFE024608
:103A18000B4610461946FDF73FF80246FB699A60C7
:103A2800FB699A68FB69603393E80300FFF7F0FAD3
:103A3800FB69DB69012B0CBF01230023DAB2FB69A8
:103A4800DB69032B0CBF01230023DBB21343DBB27A
:103A5800002B18D097ED021B97ED040B01F040FAEC
:103A680053EC102B10461946FDF716F803465A4238
:103A7800FB691A60FB691A68FB69503393E8030015
:103A8800FFF7C6FA07E0FB691A68FB69503393E849
:103A98000300FFF7BDFA00BF2037BD46BDEC028B1F
:103AA800B0BDB0B582B000AF87ED010A3860786864
:103AB800FCF7EAFC04460D463868FCF7D3FC0246DE
:103AC8000B4643EC112B45EC104B01F00BFAB0EE12
:103AD800407AF0EE607AB0EE470AF0EE670A0837EF
:103AE800BD46B0BD80B584B000AF87ED020B7860ED
:103AF8007868FCF7B7FC02460B4643EC112B97EDB0
:103B0800020B01F0EFF9B0EE407AF0EE607AB0EE19
:103B1800470AF0EE670A1037BD4680BD80B500AF92
:103B2800144B154A1A60134B4FF416525A60114B36
:103B380000229A600F4B0022DA600E4B00221A61B5
:103B48000C4B0C225A610B4B00229A61094B002244
:103B5800DA61084B00221A62064B00225A620548B5
:103B6800FEF72AF80346002B01D0FFF74BFA00BFF7
:103B780080BD00BFF40000200044004080B58AB03A
:103B880000AF786007F1140300221A605A609A6047
:103B9800DA601A617B681B68264A934245D1264B36
:103BA800DB69254A43F40033D361234BDB6903F413
:103BB80000333B613B69204B5B691F4A43F4003388
:103BC80053611D4B5B6903F40033FB60FB681A4BC0
:103BD8005B69194A43F480235361174B5B6903F40B
:103BE8008023BB60BB684FF400437B610223BB6149
:103BF8000023FB6103233B6207237B6207F1140365
:103C080019464FF09040FDF70BF908237B6102231A
:103C1800BB610023FB6103233B6207237B6207F13F
:103C2800140319460548FDF7FBF800BF2837BD46C1
:103C380080BD00BF0044004000100240000400485E
:103C480080B483B000AF786039603B6818460C37A1
:103C5800BD465DF8047B704780B582B000AF7860E0
:103C68007B68184600F0E6FA7B6818460837BD46B8
:103C780080BD80B582B000AF78607B681846FFF7DA
:103C8800EBFF7B6818460837BD4680BD80B586B017
:103C980000AFF860B960394681E80C00FB68184647
:103CA800FFF7E7FFFB6800225A61FB6800225A61B0
:103CB80000237B61FB685B697A699A420DDAF868D0
:103CC8007B69682202FB03F3BA681344194600F0C3
:103CD800C1FA7B6901337B61ECE7FB680C333A4638
:103CE80092E8030083E80300FB6818461837BD46CE
:103CF80080BD80B582B000AF78607868FCF7B2FB11
:103D080002460B4643EC102B01F03EF8B0EE407A29
:103D1800F0EE607AB0EE470AF0EE670A0837BD4663
:103D280080BD80B582B000AF78607868FCF79AFBF8
:103D380002460B4643EC102B01F07AF8B0EE407ABD
:103D4800F0EE607AB0EE470AF0EE670A0837BD4633
:103D580080BD2DE9904F87B000AF786039607B68EF
:103D680000225A613868FFF7C4FF53EC102B104645
:103D78001946FCF791FE0346FB723868FFF7D1FF3E
:103D880053EC102B10461946FCF786FE0346BB720F
:103D98007B6800225A627B6800229A627B68002254
:103DA800DA627B680021184600F07AFA04467B68DC
:103DB8005B6A1846FCF756FB804689467B689B6A17
:103DC8001846FCF74FFB82468B467B68DB6A184631
:103DD800FCF748FB02460B4643EC122B4BEC11ABAD
:103DE80049EC108B2046FFF74BFD7B6801211846F4
:103DF80000F056FA04467B685B6A1846FCF732FB0B
:103E0800804689467B689B6A1846FCF72BFB8246EE
:103E18008B467B68DB6A1846FCF724FB02460B4698
:103E280043EC122B4BEC11AB49EC108B2046FFF7FF
:103E380027FD7B680221184600F032FA04467B68A9
:103E48005B6A1846FCF70EFB804689467B689B6ACE
:103E58001846FCF707FB82468B467B68DB6A1846E8
:103E6800FCF700FB02460B4643EC122B4BEC11AB64
:103E780049EC108B2046FFF703FD7B6803211846A9
:103E880000F00EFA04467B685B6A1846FCF7EAFA0B
:103E9800804689467B689B6A1846FCF7E3FA8246A7
:103EA8008B467B68DB6A1846FCF7DCFA02460B4651
:103EB80043EC122B4BEC11AB49EC108B2046FFF76F
:103EC800DFFC7B680021184600F0EAF9044697F900
:103ED8000B301846FCF7C6FA8046894697F90A302F
:103EE8005A007B681B6B1344DA0F13445B101846A7
:103EF800FCF7B8FA82468B467B681A6A7B689B6B2C
:103F080013441846FCF7AEFA02460B4643EC122B54
:103F18004BEC11AB49EC108B2046FFF7B1FC7B68EA
:103F28000021184600F0BCF9044697F90B301846F2
:103F3800FCF798FA8046894697F90A207B681B6B3C
:103F480013441846FCF78EFA82468B467B681B6A38
:103F58001846FCF787FA02460B4643EC122B4BEC4B
:103F680011AB49EC108B2046FFF78AFC00237B61DC
:103F78007B685B697A699A425ADA7B687A69114682
:103F8800184600F08DF9044697F90B301846FCF7EF
:103F980069FA8046894697F90A305A007B681B6B94
:103FA800D31ADA0F13445B101846FCF75BFA824603
:103FB8008B467B681A6A7B689B6B13441846FCF730
:103FC80051FA02460B4643EC122B4BEC11AB49EC71
:103FD800108B2046FFF754FC7B687A691146184617
:103FE80000F05EF9044697F90B301846FCF73AFAE8
:103FF8008046894697F90A207B681B6BD31A1846B6
:10400800FCF730FA82468B467B681B6A1846FCF739
:1040180029FA02460B4643EC122B4BEC11AB49EC48
:10402800108B2046FFF72CFC7B6901337B619FE7EF
:1040380002233B613B69002B5ADD7B683A691146D4
:10404800184600F02DF9044697F90B301846FCF78E
:1040580009FA8046894697F90A305A007B681B6B33
:104068001344DA0F13445B101846FCF7FBF9824639
:104078008B467B681A6A7B689B6B13441846FCF76F
:10408800F1F902460B4643EC122B4BEC11AB49EC11
:10409800108B2046FFF7F4FB7B683A6911461846F7
:1040A80000F0FEF8044697F90B301846FCF7DAF9E9
:1040B8008046894697F90A207B681B6B134418468B
:1040C800FCF7D0F982468B467B681B6A1846FCF7DA
:1040D800C9F902460B4643EC122B4BEC11AB49ECE9
:1040E800108B2046FFF7CCFB3B69013B3B61A1E706
:1040F8000023FB607B685B69FA689A425ADA7B683E
:10410800FA681146184600F0CBF8044697F90B30C8
:104118001846FCF7A7F98046894697F90A305A00ED
:104128007B681B6B1344DA0F13445B101846FCF7CB
:1041380099F982468B467B681A6A7B689B6BD31A0F
:104148001846FCF78FF902460B4643EC122B4BEC52
:1041580011AB49EC108B2046FFF792FB7B68FA689D
:104168001146184600F09CF8044697F90B3018469B
:10417800FCF778F98046894697F90A207B681B6B1B
:10418800D31A1846FCF76EF982468B467B681B6A81
:104198001846FCF767F902460B4643EC122B4BEC2A
:1041A80011AB49EC108B2046FFF76AFBFB68013323
:1041B800FB609FE77B680321184600F071F804460E
:1041C80097F90B301846FCF74DF98046894697F960
:1041D8000A207B681B6B13441846FCF743F9824698
:1041E8008B467B681B6A1846FCF73CF902460B466F
:1041F80043EC122B4BEC11AB49EC108B2046FFF72C
:104208003FFB7B683A68DA63002318461C37BD46D3
:10421800BDE8908F80B582B000AF786039607B6868
:104228003A680C3393E80300FEF7F2FE00BF083744
:10423800BD4680BD80B582B000AF7860786800F078
:1042480041F87B68184600F049F87B68184608373B
:10425800BD4680BD80B582B000AF786039607B68AC
:104268005A687B689B689A420DD078687B685B685F
:104278003A68194600F072F87B685B6803F16802D7
:104288007B685A6008E0786800F07BF803463A6873
:104298001946786800F09CF800BF0837BD4680BD15
:1042A80080B483B000AF786039607B681A683B6877
:1042B800682101FB03F3134418460C37BD465DF82B
:1042C800047B704780B582B000AF7860786800F0F2
:1042D80043F97B6818460837BD4680BD80B483B073
:1042E80000AF78607B6800221A607B6800225A6001
:1042F8007B6800229A607B6818460C37BD465DF8DB
:10430800047B704780B584B000AFF860B9607A600C
:10431800BB68002B05D0FB687A68B968184600F0BE
:1043280026F900BF1037BD4680BD80B483B000AF0A
:1043380078607B6818460C37BD465DF8047B70478B
:1043480080B584B000AFF860B9607A60B968F86881
:1043580000F01CF900BF1037BD4680BD80B584B0A1
:1043680000AFF860B9607A60786800F01CF903461D
:104378001A46B968F86800F021F900BF1037BD4641
:1043880080BD80B584B000AF78607B681A1D07F1E6
:104398000C031146184600F02BF9FB681846103735
:1043A800BD4680BD80B582B000AF184600F005F864
:1043B800034618460837BD4680BD80B483B000AFB9
:1043C8003871012318460C37BD465DF8047B7047E9
:1043D800B0B58CB000AFF860B9607A605C4A012172
:1043E800F86800F015F9B862FB681B687B62FB6827
:1043F8005B683B62F86800F052F903467B6107F19D
:10440800140207F108031146184600F059F903464B
:10441800FB61FB68B96A184600F06CF9B861BB69C2
:10442800FB62FC68FB69682202FB03F3BA69D518D2
:10443800786800F0B8F803461A4629462046FFF780
:104448008DFF0023FB62FFF7ADFF0346002B27D04B
:1044580007F10803184600F075F903461C68FB6865
:104468001846FFF762FF0346BA692146786A00F0EA
:1044780055F9F862FB6A6833FB6207F108031846CE
:1044880000F060F903461C68FB681846FFF74DFF0B
:104498000346FA6A396A204600F040F9F86226E0D5
:1044A80007F10803184600F04DF903461C68FB683D
:1044B8001846FFF73AFF0346BA692146786A00F0C2
:1044C8004CF9F862FB6A6833FB6207F10803184687
:1044D80000F038F903461C68FB681846FFF725FF0B
:1044E8000346FA6A396A204600F037F9F862FFF79E
:1044F80059FF034683F00103DBB2002B09D0FB68A8
:104508001846FFF712FF03461A46396A786AFFF71A
:1045180017FFF868FB689A687B6AD31ADB100D4AA4
:1045280002FB03F31A46796AFFF7ECFEFB68BA69E7
:104538001A60FB68FA6A5A60BB6A682202FB03F3D6
:10454800BA691A44FB689A6000BF3037BD46B0BDEF
:10455800107B0008C54EECC480B483B000AF78600F
:104568007B6818460C37BD465DF8047B704780B5FC
:1045780084B000AFF860B9607A607A68B968F868A2
:1045880000F011F900BF1037BD4680BD80B582B07C
:1045980000AF786039603968786800F016F900BFB4
:1045A8000837BD4680BD80B483B000AF78607B68B3
:1045B80018460C37BD465DF8047B704790B585B04A
:1045C80000AFF860B9607A607868FFF7ECFF0446DE
:1045D800BB6819466820FFF733FB03461846214697
:1045E80068231A4602F0B0FD00BF1437BD4690BDDF
:1045F80080B483B000AF786039603B681A687B6824
:104608001A607B6818460C37BD465DF8047B704716
:1046180090B587B000AFF860B9607A60F86800F0CC
:10462800DFF80446F86800F0EDF80346E21ABB68C4
:104638009A4234BF01230023DBB2002B02D07868F2
:1046480000F095FBF86800F0DDF80446F86800F023
:10465800D9F803463B6107F1080207F11003114638
:10466800184600F0E5F803461B6823447B61F868A8
:1046780000F0C8F802467B69934206D3F86800F058
:10468800AFF802467B69934204D9F86800F0A8F8AD
:10469800034600E07B6918461C37BD4690BD80B5CF
:1046A80084B000AF78607A6807F10C0311461846A9
:1046B800FFF79EFFFB6818461037BD4680BD000017
:1046C80090B583B000AF78603960786800F03AF848
:1046D80003461C68386800F035F803461B68E31A7F
:1046E800DB10034A02FB03F318460C37BD4690BDA6
:1046F800C54EECC480B582B000AF786039603B68C5
:10470800002B06D07B683968184600F0A5F80346E8
:1047180000E0002318460837BD4680BD90B587B035
:1047280002AFF860B9607A603B608DF800403B6882
:104738007A68B968F86800F09EF803461846143796
:10474800BD4690BD80B483B000AF78607B681846E2
:104758000C37BD465DF8047B704790B585B000AF57
:10476800F860B9607A603B60F86800F096F8044633
:10477800B86800F092F801463B687A68204600F075
:104788009BF8034618461437BD4690BD80B582B0E5
:1047980000AF786039603968786800F09EF800BF2B
:1047A8000837BD4680BD80B584B000AFF860B960F9
:1047B8007A607B68682202FB03F31946B86800F048
:1047C800C0FA00BF1037BD4680BD80B483B000AFCB
:1047D8007860396000BF0C37BD465DF8047B7047D0
:1047E80080B582B000AF78607B68184600F09CF80E
:1047F8000346184600F07CF8034618460837BD46BD
:1048080080BD000080B483B000AF78607B685A68D0
:104818007B681B68D31ADB10044A02FB03F31846B3
:104828000C37BD465DF8047B704700BFC54EECC42D
:1048380080B483B000AF786039607B681A683B68E1
:104848001B689A4201D23B6800E07B6818460C3727
:10485800BD465DF8047B704780B582B000AF7860D4
:10486800396000223968786800F069F8034618460C
:104878000837BD4680BD80B584B000AFF860B96028
:104888007A603B603B687A68B968F86800F077F846
:10489800034618461037BD4680BD80B584B000AFCA
:1048A800786007F10C037968184600F085F8FB6812
:1048B80018461037BD4680BD80B584B000AFF8609B
:1048C800B9607A603B607A68B968F86800F086F881
:1048D800034618461037BD4680BD80B483B000AF8C
:1048E8007860396000BF0C37BD465DF8047B7047BF
:1048F80080B584B000AF78600A4BFB60786800F040
:104908007FF80346BB6007F1080207F10C03114664
:10491800184600F081F803461B6818461037BD4654
:1049280080BD00BFB1133B0180B483B000AF786095
:104938007B6818460C37BD465DF8047B704780B528
:1049480084B000AFF860B9607A60F86800F078F871
:104958000246BB6893428CBF01230023DBB2002BC5
:1049680001D000F001FABB68682202FB03F3184685
:1049780000F0E9F9034618461037BD4680BDB0B5CA
:1049880084B000AFF860B9607A603B60F86800F006
:1049980065F80446B86800F061F80546786800F0E4
:1049A8005DF802463B682946204600F062F8034657
:1049B80018461037BD46B0BD80B582B000AF7860EC
:1049C80039603B46184600F07AF803461A687B6857
:1049D8001A607B6818460837BD4680BD80B586B02A
:1049E80000AFF860B9607A600123FB757A68B9682E
:1049F800F86800F06FF8034618461837BD4680BDC2
:104A080080B582B000AF7860786800F092F803460D
:104A180018460837BD4680BD80B483B000AF7860C3
:104A280039603B681A687B681B689A4201D23B6808
:104A380000E07B6818460C37BD465DF8047B70477C
:104A480080B483B000AF7860034B18460C37BD467E
:104A58005DF8047B704700BFB1133B0180B483B09D
:104A680000AF78607B6818460C37BD465DF8047B5C
:104A7800704790B587B000AFF860B9607A603B6066
:104A88007B687B61FA68BB689A4213D0786900F04A
:104A98005CF80446F86800F058F803463A68194686
:104AA800204600F05DF8FB686833FB607B6968337B
:104AB8007B61E7E77B6918461C37BD4690BD80B42B
:104AC80083B000AF78607B6818460C37BD465DF848
:104AD800047B704790B587B000AFF860B9607A6022
:104AE8007B687B6107F1080207F10C031146184641
:104AF80000F051F80346002B16D0786900F025F82D
:104B0800044607F10C03184600F067F803461946F7
:104B1800204600F06EF807F10C03184600F04CF838
:104B28007B6968337B61DDE77B6918461C37BD46C6
:104B380090BD80B582B000AF78607868FFF780FFDD
:104B4800034618460837BD4680BD80B483B000AF21
:104B580078607B6818460C37BD465DF8047B704763
:104B680080B584B000AFF860B9607A60B86800F0CA
:104B780059F803461A46F968786800F05EF8B8688C
:104B8800FFF7E3FF034619467868FFF7FFFD00BF0C
:104B98001037BD4680BD80B582B000AF78603960FF
:104BA8003968786800F05CF8034683F00103DBB2EB
:104BB80018460837BD4680BD80B483B000AF786022
:104BC8007B681B6803F168027B681A607B6818467B
:104BD8000C37BD465DF8047B704780B483B000AFE6
:104BE80078607B681B6818460C37BD465DF8047B07
:104BF800704790B583B000AF78603960386800F0CE
:104C080045F804467B6819466820FFF719F80346FB
:104C18001846214668231A4602F096FA00BF0C3758
:104C2800BD4690BD80B483B000AF78607B681846FD
:104C38000C37BD465DF8047B704780B584B000AF83
:104C4800F860B9607A60786800F020F803461A4680
:104C5800B968F86800F025F800BF1037BD4680BD78
:104C680090B583B000AF78603960786800F033F8A9
:104C78000446386800F02FF803469C420CBF012315
:104C88000023DBB218460C37BD4690BD80B483B014
:104C980000AF78607B6818460C37BD465DF8047B2A
:104CA800704790B585B000AFF860B9607A607868F1
:104CB800FFF7ECFF0446BB6819466820FEF7C0FF03
:104CC80003461846214668231A4602F03DFA00BFFB
:104CD8001437BD4690BD80B483B000AF78607B6860
:104CE8001B6818460C37BD465DF8047B704700000A
:104CF800DFF834D0FEF7F2FA0C480D490D4A0023CC
:104D080002E0D458C4500433C4188C42F9D30A4A78
:104D18000A4C002301E013600432A242FBD302F0E4
:104D2800DFF9FDF7FBFFFEE7003000200000002060
:104D3800700000203C7E00087000002090010020D8
:104D4800FEE700F017B8012838BF012010B5044667
:104D5800204602F0E9F930B900F00EF808B902F07F
:104D6800B1F98047F4E710BD08B502F0ABF908B512
:104D780002F0A8F902F0E0B9024B1868BFF35B8FA4
:104D8800704700BF7C0100201FB553EC102B26484C
:104D980023F00041814206DC9FED211B05B05DF840
:104DA80004EB01F0CDB92148814209DD10EE100A6B
:104DB8001946FBF709FA41EC100B05B05DF804FB46
:104DC800684600F0FDFE00F0030001280BD0022821
:104DD80016D0E0B99DED021B9DED000B01F0B0F976
:104DE80051EC100BE7E79DED021B9DED000B01F068
:104DF800BFFD53EC102B10EE100A03F10041DAE767
:104E08009DED021B9DED000B01F09AF9F1E79DED78
:104E1800021B9DED000B012001F0AAFDE0E700BF99
:104E28000000000000000000FB21E93FFFFFEF7FCA
:104E38001FB553EC102B284823F00041814207DCB2
:104E48009FED231B002005B05DF804EB01F090BD39
:104E58002248814209DD10EE100A1946FBF7B4F921
:104E680041EC100B05B05DF804FB684600F0A8FEA5
:104E780000F0030001280CD0022811D0F0B99DEDF4
:104E8800021B9DED000B012001F072FD51EC100B8F
:104E9800E6E79DED021B9DED000B01F051F9F5E7EA
:104EA8009DED021B9DED000B012001F061FD53EC0F
:104EB800102B10EE100A03F10041D1E79DED021B03
:104EC8009DED000B01F03CF9F1E700BFAFF3008066
:104ED8000000000000000000FB21E93FFFFFEF7F1A
:104EE80000F072B8F8B52DED028BB0EE408AF0EE06
:104EF800608A55EC114B00F033F922462B462046C8
:104F0800294657EC106BFBF7B1FD00283BD151EC5B
:104F1800180B00220023FBF777FDB8B1002200230D
:104F280020462946FBF770FD002846D145EC104B7A
:104F380001F0B7FF38B30022002320462946FBF7CB
:104F48006DFD00B302F0C6F822231BE047EC106B9E
:104F580001F0A7FFE0B9B0EE480AF0EE680A01F0E8
:104F6800A0FFA8B145EC104B01F09BFF80B1324681
:104F78003B4630463946FBF779FD0028E2D002F07F
:104F8800A9F821230360BDEC028B47EC106BF8BD38
:104F98000022002330463946FBF736FD0028F2D0C0
:104FA800B0EE480AF0EE680A01F07BFF0028EAD06C
:104FB80045EC104B01F075FFC3E7014F0026E2E70F
:104FC8000000F03F000000002DE9F84357EC116B9A
:104FD8007342DFF884E127F00042334342EAD37397
:104FE800734551EC100B11EE108A0AD8444221F097
:104FF8000043044343EAD474744510EE109A8C4677
:1050080007D932463B46FBF7E1F841EC100BBDE807
:10501800F88307F1404404F58014344303D1BDE814
:10502800F84301F095BDBC1704F0020453EA0909DE
:1050380044EAD17407D1022C60D0032CE5D142A1F7
:10504800D1E90001E1E752EA080806D1BCF1000FF6
:105058005FDA3FA1D1E90001D7E772450FD193424A
:1050680004F1FF3407D1022C4CD8354B03EBC404B0
:10507800D4E90001C9E7022C48D8324BF6E773455A
:10508800E4D09B1AB3F1747F4FEA23521EDA002F43
:1050980001DA3C321EDB32463B46FBF777FB41EC3C
:1050A800100B01F0F5FE01F053FD51EC100B012C33
:1050B80013D0022C15D0002CA7D019A3D3E90023B4
:1050C800FBF782F818A3D3E9002314E018A1D1E96B
:1050D8000001ECE700200021E9E701F1004319464F
:1050E80093E70FA3D3E90023FBF76EF802460B46BC
:1050F8000DA1D1E90001FBF767F886E70AA1D1E91C
:10510800000182E70CA1D1E900017EE7002000211F
:105118007BE707A1D1E9000177E700BFAFF3008083
:10512800075C143326A6A13C182D4454FB210940E2
:10513800182D4454FB21F93F182D4454FB21E93F15
:10514800587B0008707B0008182D4454FB2109C0C7
:10515800182D4454FB21F9BF0000F07F0000000027
:105168002DE9F04F2DED068B89B08DED001BDDE9A3
:10517800002929F0004858EA020157EC106B15D1B4
:10518800B31987F4002252419942894B934180F028
:10519800D284DDE9002330463946FBF717F841ECA5
:1051A800100B09B0BDEC068BBDE8F08F814B27F0E2
:1051B80000449C4210EE10AA3D4606DC01D1002EA8
:1051C800E7D1984501DC0FD172B105F1404505F5ED
:1051D800801555EA0A05DCD1DDE90032DB1882F4D6
:1051E800002252419D42D0E7002D3BDA724B984590
:1051F80051DCA3F15473984540F3AC844FEA28532B
:10520800A3F2FF33142B0FDDC3F1340322FA03F1A9
:1052180001FA03F3934240F09D8401F00101C1F1CA
:105228000203049382B15FE0002A5BD1C3F1140347
:1052380048FA03F101FA03F3434540F0888401F08A
:105248000101C1F1020304935C4B984532D1B9F1D5
:10525800000F80F27884594932463B460020FBF71C
:1052680095FA9CE700230493002A3DD1514B9845B9
:10527800EAD104F1404303F5801353EA0A0300F02E
:105288005A844F4B9C4208DDB9F1000FC0F2578495
:10529800DDE9000183E70223E5E7B9F1000F4FF0EC
:1052A80000004FF00001BFF67AAFDDE9000303F11B
:1052B800004174E7B9F1804F06D132463B4630468B
:1052C8003946FBF739F96AE73E4B99450CD1002D71
:1052D8000ADB47EC106B09B0BDEC068BBDE8F04F5C
:1052E80000F07ABE0023049347EC106B01F0D0FD68
:1052F80051EC100BBAF1000F29D124B12F4B25F036
:1053080040429A4223D1B9F1000F05DA02460B4612
:1053180000202A49FBF73AFA002DBFF640AF049B5C
:1053280004F1404404F58014234308D102460B4697
:1053380010461946FAF748FF02460B468FE7049BCA
:10534800012B7FF42CAF01F10043194627E7EB0F3F
:10535800013B0693069A049B134302D132463B460F
:10536800E6E7194B984540F3FB8003F10473984531
:10537800134B0CDD9C420FDCB9F1000F0FDA002053
:1053880009B0BDEC068BBDE8F04F01F0D6BB9C42DE
:10539800F2DB0A4B9C4219DDB9F1000FEFDC00206B
:1053A80009B0BDEC068BBDE8F04F01F0BDBB00BFF6
:1053B8000000F0FF0000F07FFFFF3F430000F03FD8
:1053C800FFFFEF3F0000E03F0000E041604B00229C
:1053D800FAF7FAFE54A3D3E9002304460D46FBF777
:1053E800ABF853A3D3E9002306460F4620462946C7
:1053F800FBF7A2F8574B82468B46002220462946E7
:10540800FBF79AF802460B464BA1D1E90001FAF7DF
:10541800DBFE22462B46FBF78FF802460B460020A0
:105428004D49FAF7D1FE2246804689462B4620464A
:105438002946FBF781F802460B4640464946FBF7EA
:105448007BF83FA3D3E90023FBF776F802460B4627
:1054580050465946FAF7B8FE02460B46804689463A
:1054680030463946FAF7B2FE002032463B4604463B
:105478000D46FAF7A9FE02460B4640464946FAF79A
:10548800A3FE049B069A013B134382468B4640F0D9
:10549800E7819FED2D7BB0EE478AF0EE678ADDE964
:1054A8000067002632463B46DDE90001FAF78CFE2C
:1054B80022462B46FBF740F8DDE900238046894663
:1054C80050465946FBF738F802460B4640464946CF
:1054D800FAF77CFE32463B468046894620462946F6
:1054E800FBF72AF80B4604460D4602464946404655
:1054F800FAF76CFE194B994245EC194B06460F46D4
:105508008B4640F3F18201F13F4303F5E003034387
:1055180000F0E48151EC180B00220023FBF77EFA1F
:10552800003818BF01202BE7000000604715F73F3F
:1055380044DF5DF80BAE543E555555555555D53F8E
:10554800FE822B654715F73F000000000000F0BF02
:105558000000F03F0000D03F0000E03FFFFF8F4019
:10556800D54B2B4000222BB9D44BFAF7E5FF6FF04F
:1055780034020C462315A3F2FF3313440593D04B92
:10558800C4F3130444F07F559C4245F4401508DDEC
:10559800CC4B9C4240F36281059B01330593A5F5F2
:1055A80080150024E3000793C74B03EBC40393ED76
:1055B800007B294653EC172BB0EE479AF0EE679A1A
:1055C8008246FAF701FE524606460F462B4651EC34
:1055D800190BFAF7FBFD02460B460020BB49FBF707
:1055E800D5F841EC1A0B02460B4630463946FAF715
:1055F800A3FF0023CDE902010293DDE90289AB464E
:105608006D1045F0005505F5002541EC180B05EB2C
:10561800844300224046494614461D46FAF78CFF4B
:1056280002460B4630463946FAF7CEFD53EC192BA5
:1056380006460F4620462946FAF7C6FD02460B469F
:1056480050465946FAF7C0FD42464B46FAF774FFF2
:1056580002460B4630463946FAF7B6FD53EC1A2B8C
:10566800FAF76AFF53EC182B41EC190B51EC180BA5
:10567800FAF762FF7CA3D3E9002304460D46FAF744
:105688005BFF7BA3D3E90023FAF7A0FD22462B4654
:10569800FAF752FF78A3D3E90023FAF797FD2246D9
:1056A8002B46FAF749FF76A3D3E90023FAF78EFDD4
:1056B80022462B46FAF740FF73A3D3E90023FAF7F3
:1056C80085FD22462B46FAF737FF71A3D3E900235D
:1056D800FAF77CFD224606460F462B462046294609
:1056E800FAF72AFF02460B4630463946FAF724FFF6
:1056F800424604460D464B4651EC180BFAF766FD38
:1057080053EC192BFAF718FF22462B46FAF75EFDE1
:10571800424682468B464B4640464946FAF70CFFBE
:105728006B4B002206460F46FAF750FD52465B4681
:10573800FAF74CFD002004460D4602460B4640464B
:105748004946FAF7F9FE624B804689460022204610
:105758002946FAF739FD32463B46FAF735FD024647
:105768000B4650465946FAF72FFD53EC182BFAF71B
:10577800E3FE224606460F462B4651EC190BFAF774
:10578800DBFE02460B4630463946FAF71FFD064651
:105798000F4602460B4640464946FAF717FD3EA318
:1057A800D3E90023002004460D46FAF7C5FE424619
:1057B80041EC180B4B4620462946FAF705FD0246F0
:1057C8000B4630463946FAF7FFFC35A3D3E90023E8
:1057D800FAF7B2FE34A3D3E9002306460F46204663
:1057E8002946FAF7A9FE02460B4630463946FAF72B
:1057F800EDFC079A374B1344D3E90023FAF7E6FC8C
:10580800824605988B46FAF72DFE079A324B1344C9
:10581800D3E9008906460F4652465B4651EC180B01
:10582800FAF7D4FC42464B46FAF7D0FC32463B46E0
:10583800FAF7CCFC002032463B4604460D46FAF700
:10584800C3FC42464B46FAF7BFFC53EC182BFAF759
:10585800BBFC02460B465046594610E60124A1E619
:105868009FED137B17E600BFEF4E454A287ECA3FDF
:1058780065DBC9934A86CD3F01411DA96074D13FBC
:105888004D268F515555D53FFFAB6FDBB66DDB3FCE
:10589800033333333333E33F000000E009C7EE3FFF
:1058A800FD033ADC09C7EE3FF5015B14E02F3EBE6D
:1058B800000000000000F03F0000F07F00004043BF
:1058C8008E98030079B60B00887B00080000F03F33
:1058D80000000840A87B0008987B0008B5A3D3E91E
:1058E800002340464946FAF771FC224641EC1A0B60
:1058F8002B4630463946FAF767FC02460B4651EC10
:105908001A0BFBF7A9F800287FF404AEA44A2BF081
:105918000043934240F308811B154FF4801AA3F209
:10592800FE334AFA03F35B44C3F30A529D4EA2F2D4
:10593800FF321641C3F3130A002023EA0601C2F11D
:1059480014024AF4801A4AFA02FABBF1000F02461E
:105958000B4620462946B8BFCAF1000AFAF734FCBC
:1059680041EC190B42464B4651EC190BFAF72EFC49
:105978007BA3D3E90023002004460D46FAF7DCFD9B
:1059880053EC192B06460F4620462946FAF71CFC0D
:1059980002460B4640464946FAF716FC72A3D3E97D
:1059A8000023FAF7C9FD72A3D3E90023804689468C
:1059B80020462946FAF7C0FD02460B4640464946AE
:1059C800FAF704FC04460D4602460B4630463946B3
:1059D800FAF7FCFB32463B4680468946FAF7F4FB69
:1059E80002460B4620462946FAF7EEFB4246064693
:1059F8000F464B4640464946FAF79EFD5EA3D3E95B
:105A0800002304460D46FAF797FD5DA3D3E900236A
:105A1800FAF7DAFB22462B46FAF78EFD5AA3D3E9AA
:105A28000023FAF7D3FB22462B46FAF785FD58A345
:105A3800D3E90023FAF7C8FB22462B46FAF77CFD88
:105A480055A3D3E90023FAF7C1FB22462B46FAF700
:105A580073FD02460B4640464946FAF7B5FB044635
:105A68000D4602460B4640464946FAF765FD0022B8
:105A780041EC190B4FF0804320462946FAF7A4FB66
:105A880002460B4651EC190BFAF780FE32460446E3
:105A98000D463B4640464946FAF74EFD32463B46E0
:105AA800FAF794FB02460B4620462946FAF78CFB88
:105AB80042464B46FAF788FB0B4602463A49002015
:105AC800FAF782FB41EC100B10EE903A03EB0A5305
